{
  "transactions": [
    {
      "hash": "0x02805f4dbdff0f113c416dc6670687235a8f9d4bcd18a6a94b2c5b2cc79935c6",
      "transactionType": "CREATE",
      "contractName": "VTONFaucet",
      "contractAddress": "0xf6ccbb5b780a8628449f5e9722b24f4362ad458c",
      "function": null,
      "arguments": [
        "0xDa2953E9B2a63fe1B8dB34C67f8371C64f16914d",
        "0x488f3660FCD32099F2A250633822a6fbF6Eb771B"
      ],
      "transaction": {
        "from": "0x488f3660fcd32099f2a250633822a6fbf6eb771b",
        "gas": "0x9fdb6",
        "value": "0x0",
        "input": "0x60a0604052683635c9adc5dea0000060015562015180600255348015610023575f80fd5b506040516108683803806108688339810160408190526100429161014d565b806001600160a01b03811661007157604051631e4fbdf760e01b81525f60048201526024015b60405180910390fd5b61007a816100e3565b506001600160a01b0382166100d15760405162461bcd60e51b815260206004820152601460248201527f496e76616c69642076544f4e20616464726573730000000000000000000000006044820152606401610068565b506001600160a01b031660805261017e565b5f80546001600160a01b038381166001600160a01b0319831681178455604051919092169283917f8be0079c531659141344cd1fd0a4f28419497f9722a3daafe3b4186f6b6457e09190a35050565b80516001600160a01b0381168114610148575f80fd5b919050565b5f806040838503121561015e575f80fd5b61016783610132565b915061017560208401610132565b90509250929050565b6080516106cb61019d5f395f818161011f015261035201526106cb5ff3fe608060405234801561000f575f80fd5b50600436106100e5575f3560e01c8063830953ab11610088578063b77cf9c611610063578063b77cf9c6146101c5578063bf3506c1146101e4578063d54ad2a11461020e578063f2fde38b14610217575f80fd5b8063830953ab146101995780638da5cb5b146101a2578063b1c7ef0c146101b2575f80fd5b80634e71d92d116100c35780634e71d92d146101595780635c975abb14610161578063715018a61461017e57806380ea3de114610186575f80fd5b806304646a49146100e957806316c38b3c1461010557806342e8d1661461011a575b5f80fd5b6100f260025481565b6040519081526020015b60405180910390f35b6101186101133660046105f2565b61022a565b005b6101417f000000000000000000000000000000000000000000000000000000000000000081565b6040516001600160a01b0390911681526020016100fc565b610118610279565b60055461016e9060ff1681565b60405190151581526020016100fc565b6101186103f1565b610118610194366004610618565b610404565b6100f260015481565b5f546001600160a01b0316610141565b6101186101c0366004610618565b610452565b6100f26101d336600461062f565b60036020525f908152604090205481565b6101f76101f236600461062f565b6104b8565b6040805192151583526020830191909152016100fc565b6100f260045481565b61011861022536600461062f565b61053a565b610232610577565b6005805460ff19168215159081179091556040519081527f7c4d1fe30fdbfda9e9c4c43e759ef32e4db5128d4cb58ff3ae9583b89b6242a59060200160405180910390a150565b60055460ff161561029d57604051636dd7b58760e11b815260040160405180910390fd5b335f9081526003602052604090205480158015906102c557506002546102c38242610669565b105b15610306576102d48142610669565b6002546102e19190610669565b604051634263cbc360e01b81526004016102fd91815260200190565b60405180910390fd5b335f908152600360205260408120429055600154600480549192909161032d908490610682565b90915550506001546040516340c10f1960e01b815233600482015260248101919091527f00000000000000000000000000000000000000000000000000000000000000006001600160a01b0316906340c10f19906044015f604051808303815f87803b15801561039b575f80fd5b505af11580156103ad573d5f803e3d5ffd5b5050600154604080519182524260208301523393507f987d620f307ff6b94d58743cb7a7509f24071586a77759b77c2d4e29f75a2f9a92500160405180910390a250565b6103f9610577565b6104025f6105a3565b565b61040c610577565b600280549082905560408051828152602081018490527f98eaabfe135a9c40c420208962bf81e7926b4d6df3e23502164c0554b7b3522491015b60405180910390a15050565b61045a610577565b805f0361047a5760405163843ce46b60e01b815260040160405180910390fd5b600180549082905560408051828152602081018490527fc22e16deec6f587d0a1aad7275c1621e6c24431fea14dd71e8f3243e9fbc5ca39101610446565b6005545f90819060ff16156104d157505f928392509050565b6001600160a01b0383165f90815260036020526040812054908190036104fd57506001935f9350915050565b5f6105088242610669565b9050600254811061052057506001945f945092505050565b5f8160025461052f9190610669565b935093505050915091565b610542610577565b6001600160a01b03811661056b57604051631e4fbdf760e01b81525f60048201526024016102fd565b610574816105a3565b50565b5f546001600160a01b031633146104025760405163118cdaa760e01b81523360048201526024016102fd565b5f80546001600160a01b038381166001600160a01b0319831681178455604051919092169283917f8be0079c531659141344cd1fd0a4f28419497f9722a3daafe3b4186f6b6457e09190a35050565b5f60208284031215610602575f80fd5b81358015158114610611575f80fd5b9392505050565b5f60208284031215610628575f80fd5b5035919050565b5f6020828403121561063f575f80fd5b81356001600160a01b0381168114610611575f80fd5b634e487b7160e01b5f52601160045260245ffd5b8181038181111561067c5761067c610655565b92915050565b8082018082111561067c5761067c61065556fea2646970667358221220649655f464b997f98f665fe28118f255212fac5c3e5ed7ab8e0d575aecad534664736f6c63430008180033000000000000000000000000da2953e9b2a63fe1b8db34c67f8371c64f16914d000000000000000000000000488f3660fcd32099f2a250633822a6fbf6eb771b",
        "nonce": "0xe",
        "chainId": "0xaa36a7"
      },
      "additionalContracts": [],
      "isFixedGasLimit": false
    },
    {
      "hash": "0xbe1208ce12f018679c89112b523e3cdd57fa50f656ad913e3df40d474a184b43",
      "transactionType": "CALL",
      "contractName": null,
      "contractAddress": "0xda2953e9b2a63fe1b8db34c67f8371c64f16914d",
      "function": "setMinter(address,bool)",
      "arguments": [
        "0xf6CcbB5b780A8628449f5e9722b24F4362AD458c",
        "true"
      ],
      "transaction": {
        "from": "0x488f3660fcd32099f2a250633822a6fbf6eb771b",
        "to": "0xda2953e9b2a63fe1b8db34c67f8371c64f16914d",
        "gas": "0x10281",
        "value": "0x0",
        "input": "0xcf456ae7000000000000000000000000f6ccbb5b780a8628449f5e9722b24f4362ad458c0000000000000000000000000000000000000000000000000000000000000001",
        "nonce": "0xf",
        "chainId": "0xaa36a7"
      },
      "additionalContracts": [],
      "isFixedGasLimit": false
    }
  ],
  "receipts": [
    {
      "status": "0x1",
      "cumulativeGasUsed": "0x6b51dc",
      "logs": [
        {
          "address": "0xf6ccbb5b780a8628449f5e9722b24f4362ad458c",
          "topics": [
            "0x8be0079c531659141344cd1fd0a4f28419497f9722a3daafe3b4186f6b6457e0",
            "0x0000000000000000000000000000000000000000000000000000000000000000",
            "0x000000000000000000000000488f3660fcd32099f2a250633822a6fbf6eb771b"
          ],
          "data": "0x",
          "blockHash": "0x4215aabd7d5e308bf376494c1d947eaae90d384a6466de4bedbf54d7b0d879c3",
          "blockNumber": "0x9a9ae2",
          "blockTimestamp": "0x69784254",
          "transactionHash": "0x02805f4dbdff0f113c416dc6670687235a8f9d4bcd18a6a94b2c5b2cc79935c6",
          "transactionIndex": "0x2f",
          "logIndex": "0x70",
          "removed": false
        }
      ],
      "logsBloom": "0x00000000000000000000000000000000000010000000000000800000000000000000000000000000000000000000000000000000000000000000000000000000000000000000000000000000000100000001000000000000000000000000000000000000020000000000080000000800000000000000000000000000000000400000000000000200000000000000000000000000000040000000000000000000000000000000000000000000000000000000000000000000000000000000000000000000000000000000000000000000000000000000000000000000000020000000000000000008000000000000000000000000000000000000000000000000",
      "type": "0x2",
      "transactionHash": "0x02805f4dbdff0f113c416dc6670687235a8f9d4bcd18a6a94b2c5b2cc79935c6",
      "transactionIndex": "0x2f",
      "blockHash": "0x4215aabd7d5e308bf376494c1d947eaae90d384a6466de4bedbf54d7b0d879c3",
      "blockNumber": "0x9a9ae2",
      "gasUsed": "0x7af79",
      "effectiveGasPrice": "0x3dcfcba5",
      "from": "0x488f3660fcd32099f2a250633822a6fbf6eb771b",
      "to": null,
      "contractAddress": "0xf6ccbb5b780a8628449f5e9722b24f4362ad458c"
    },
    {
      "status": "0x1",
      "cumulativeGasUsed": "0x70b80e",
      "logs": [
        {
          "address": "0xda2953e9b2a63fe1b8db34c67f8371c64f16914d",
          "topics": [
            "0xb21afb9ce9be0a676f8f317ff0ca072fb89a4f8ce2d1b6fe80f8755c14f1cb19",
            "0x000000000000000000000000f6ccbb5b780a8628449f5e9722b24f4362ad458c"
          ],
          "data": "0x0000000000000000000000000000000000000000000000000000000000000001",
          "blockHash": "0x4215aabd7d5e308bf376494c1d947eaae90d384a6466de4bedbf54d7b0d879c3",
          "blockNumber": "0x9a9ae2",
          "blockTimestamp": "0x69784254",
          "transactionHash": "0xbe1208ce12f018679c89112b523e3cdd57fa50f656ad913e3df40d474a184b43",
          "transactionIndex": "0x35",
          "logIndex": "0x79",
          "removed": false
        }
      ],
      "logsBloom": "0x00000000000000000000000000000040000000000000000000000000000000000000000000000000000000000000000000000000000000040000000000000080000000000000000000000000000000000008000000000000000000000000000000000000000000000000000000000000000000000000000000000000000000000000000000000000000000000000000000020000000000000000200000000000000000000008000000000000000000000000000000000008000000000000000000000000000000000000000000000000000000000000000000000000000000000000000000000020000000000000000000000000000000000000000000000000",
      "type": "0x2",
      "transactionHash": "0xbe1208ce12f018679c89112b523e3cdd57fa50f656ad913e3df40d474a184b43",
      "transactionIndex": "0x35",
      "blockHash": "0x4215aabd7d5e308bf376494c1d947eaae90d384a6466de4bedbf54d7b0d879c3",
      "blockNumber": "0x9a9ae2",
      "gasUsed": "0xbb28",
      "effectiveGasPrice": "0x3dcfcba5",
      "from": "0x488f3660fcd32099f2a250633822a6fbf6eb771b",
      "to": "0xda2953e9b2a63fe1b8db34c67f8371c64f16914d",
      "contractAddress": null
    }
  ],
  "libraries": [],
  "pending": [],
  "returns": {},
  "timestamp": 1769488979174,
  "chain": 11155111,
  "commit": "819ff4a"
}