{
  "transactions": [
    {
      "hash": "0xdc601275b763c6d99cf50073ba67f679b2e66a04743beacc291931b525fdec88",
      "transactionType": "CREATE",
      "contractName": "VTONFaucet",
      "contractAddress": "0xf089c47d753251ad4961c79adfc12da09366bcb9",
      "function": null,
      "arguments": [
        "0xb66f1A8243f601CeE72bbf51c479F37b0De50e9F",
        "0x488f3660FCD32099F2A250633822a6fbF6Eb771B"
      ],
      "transaction": {
        "from": "0x488f3660fcd32099f2a250633822a6fbf6eb771b",
        "gas": "0x7667c",
        "value": "0x0",
        "input": "0x60a0604052683635c9adc5dea0000060015534801561001c575f80fd5b5060405161066b38038061066b83398101604081905261003b91610146565b806001600160a01b03811661006a57604051631e4fbdf760e01b81525f60048201526024015b60405180910390fd5b610073816100dc565b506001600160a01b0382166100ca5760405162461bcd60e51b815260206004820152601460248201527f496e76616c69642076544f4e20616464726573730000000000000000000000006044820152606401610061565b506001600160a01b0316608052610177565b5f80546001600160a01b038381166001600160a01b0319831681178455604051919092169283917f8be0079c531659141344cd1fd0a4f28419497f9722a3daafe3b4186f6b6457e09190a35050565b80516001600160a01b0381168114610141575f80fd5b919050565b5f8060408385031215610157575f80fd5b6101608361012b565b915061016e6020840161012b565b90509250929050565b6080516104d66101955f395f818160c4015261023d01526104d65ff3fe608060405234801561000f575f80fd5b50600436106100a6575f3560e01c8063715018a61161006e578063715018a614610134578063830953ab1461013c5780638da5cb5b14610153578063b1c7ef0c14610163578063d54ad2a114610176578063f2fde38b1461017f575f80fd5b806316c38b3c146100aa57806342e8d166146100bf5780634e71d92d146101035780635c975abb1461010b5780636dc7a62714610128575b5f80fd5b6100bd6100b8366004610418565b610192565b005b6100e67f000000000000000000000000000000000000000000000000000000000000000081565b6040516001600160a01b0390911681526020015b60405180910390f35b6100bd6101e1565b6003546101189060ff1681565b60405190151581526020016100fa565b60035460ff1615610118565b6100bd6102db565b61014560015481565b6040519081526020016100fa565b5f546001600160a01b03166100e6565b6100bd61017136600461043e565b6102ee565b61014560025481565b6100bd61018d366004610455565b61035b565b61019a61039d565b6003805460ff19168215159081179091556040519081527f7c4d1fe30fdbfda9e9c4c43e759ef32e4db5128d4cb58ff3ae9583b89b6242a59060200160405180910390a150565b60035460ff161561020557604051636dd7b58760e11b815260040160405180910390fd5b60015460025f828254610218919061047b565b90915550506001546040516340c10f1960e01b815233600482015260248101919091527f00000000000000000000000000000000000000000000000000000000000000006001600160a01b0316906340c10f19906044015f604051808303815f87803b158015610286575f80fd5b505af1158015610298573d5f803e3d5ffd5b5050600154604080519182524260208301523393507f987d620f307ff6b94d58743cb7a7509f24071586a77759b77c2d4e29f75a2f9a92500160405180910390a2565b6102e361039d565b6102ec5f6103c9565b565b6102f661039d565b805f036103165760405163843ce46b60e01b815260040160405180910390fd5b600180549082905560408051828152602081018490527fc22e16deec6f587d0a1aad7275c1621e6c24431fea14dd71e8f3243e9fbc5ca3910160405180910390a15050565b61036361039d565b6001600160a01b03811661039157604051631e4fbdf760e01b81525f60048201526024015b60405180910390fd5b61039a816103c9565b50565b5f546001600160a01b031633146102ec5760405163118cdaa760e01b8152336004820152602401610388565b5f80546001600160a01b038381166001600160a01b0319831681178455604051919092169283917f8be0079c531659141344cd1fd0a4f28419497f9722a3daafe3b4186f6b6457e09190a35050565b5f60208284031215610428575f80fd5b81358015158114610437575f80fd5b9392505050565b5f6020828403121561044e575f80fd5b5035919050565b5f60208284031215610465575f80fd5b81356001600160a01b0381168114610437575f80fd5b8082018082111561049a57634e487b7160e01b5f52601160045260245ffd5b9291505056fea26469706673582212201ffbea5df406174856beb6e70d23e3364b3b234156d83564f9b457e3fd38da6364736f6c63430008180033000000000000000000000000b66f1a8243f601cee72bbf51c479f37b0de50e9f000000000000000000000000488f3660fcd32099f2a250633822a6fbf6eb771b",
        "nonce": "0x23",
        "chainId": "0xaa36a7"
      },
      "additionalContracts": [],
      "isFixedGasLimit": false
    },
    {
      "hash": "0xb978b9551c40648220152a1666ae710d196e44f21e83080b58de755003c04e2f",
      "transactionType": "CALL",
      "contractName": null,
      "contractAddress": "0xb66f1a8243f601cee72bbf51c479f37b0de50e9f",
      "function": "setMinter(address,bool)",
      "arguments": [
        "0xf089c47d753251aD4961c79Adfc12Da09366BCb9",
        "true"
      ],
      "transaction": {
        "from": "0x488f3660fcd32099f2a250633822a6fbf6eb771b",
        "to": "0xb66f1a8243f601cee72bbf51c479f37b0de50e9f",
        "gas": "0x10281",
        "value": "0x0",
        "input": "0xcf456ae7000000000000000000000000f089c47d753251ad4961c79adfc12da09366bcb90000000000000000000000000000000000000000000000000000000000000001",
        "nonce": "0x24",
        "chainId": "0xaa36a7"
      },
      "additionalContracts": [],
      "isFixedGasLimit": false
    }
  ],
  "receipts": [
    {
      "status": "0x1",
      "cumulativeGasUsed": "0x14f0b20",
      "logs": [
        {
          "address": "0xf089c47d753251ad4961c79adfc12da09366bcb9",
          "topics": [
            "0x8be0079c531659141344cd1fd0a4f28419497f9722a3daafe3b4186f6b6457e0",
            "0x0000000000000000000000000000000000000000000000000000000000000000",
            "0x000000000000000000000000488f3660fcd32099f2a250633822a6fbf6eb771b"
          ],
          "data": "0x",
          "blockHash": "0x473ac1aeff1d29654ac64a248cb93e2518e8390d195713d1fb3f759a381b2030",
          "blockNumber": "0x9a9be6",
          "blockTimestamp": "0x69784f38",
          "transactionHash": "0xdc601275b763c6d99cf50073ba67f679b2e66a04743beacc291931b525fdec88",
          "transactionIndex": "0x41",
          "logIndex": "0x145",
          "removed": false
        }
      ],
      "logsBloom": "0x00000000000000000000000000000000000000000000000000800000000000000000000000000000000000000000000000000000000000000000000000000000000000000000010001000000000000000001000000000000000000000000000000000000020000000000080000000800000000000000000000000000000000400000000000000000000000000000000000000000000040000000000200000000000000000000000000000000000000000000000000000000000000000000000000000000000000000000000000000000000000000000000000000000000020000000000000000008000000000000000000000000000000000000000000000000",
      "type": "0x2",
      "transactionHash": "0xdc601275b763c6d99cf50073ba67f679b2e66a04743beacc291931b525fdec88",
      "transactionIndex": "0x41",
      "blockHash": "0x473ac1aeff1d29654ac64a248cb93e2518e8390d195713d1fb3f759a381b2030",
      "blockNumber": "0x9a9be6",
      "gasUsed": "0x5b14c",
      "effectiveGasPrice": "0x42bfaaf5",
      "from": "0x488f3660fcd32099f2a250633822a6fbf6eb771b",
      "to": null,
      "contractAddress": "0xf089c47d753251ad4961c79adfc12da09366bcb9"
    },
    {
      "status": "0x1",
      "cumulativeGasUsed": "0x14fc648",
      "logs": [
        {
          "address": "0xb66f1a8243f601cee72bbf51c479f37b0de50e9f",
          "topics": [
            "0xb21afb9ce9be0a676f8f317ff0ca072fb89a4f8ce2d1b6fe80f8755c14f1cb19",
            "0x000000000000000000000000f089c47d753251ad4961c79adfc12da09366bcb9"
          ],
          "data": "0x0000000000000000000000000000000000000000000000000000000000000001",
          "blockHash": "0x473ac1aeff1d29654ac64a248cb93e2518e8390d195713d1fb3f759a381b2030",
          "blockNumber": "0x9a9be6",
          "blockTimestamp": "0x69784f38",
          "transactionHash": "0xb978b9551c40648220152a1666ae710d196e44f21e83080b58de755003c04e2f",
          "transactionIndex": "0x42",
          "logIndex": "0x146",
          "removed": false
        }
      ],
      "logsBloom": "0x00000004000000000000000000000000000000000000000000000000000000000000000000000000000000000000000000000000000000040000000000000080000000000000000080000000000000000000000000000000000000000000000000000000000000000000000000000000000000000000000000000000000000000000000000000000000000000000000000000000000020000000200000000200000000040000000000200000000000000000000000000000000000000000000000000000000000000000000000000000000000000000000000000000000000000000000000000000000000000000000000000000000000000000000000000000",
      "type": "0x2",
      "transactionHash": "0xb978b9551c40648220152a1666ae710d196e44f21e83080b58de755003c04e2f",
      "transactionIndex": "0x42",
      "blockHash": "0x473ac1aeff1d29654ac64a248cb93e2518e8390d195713d1fb3f759a381b2030",
      "blockNumber": "0x9a9be6",
      "gasUsed": "0xbb28",
      "effectiveGasPrice": "0x42bfaaf5",
      "from": "0x488f3660fcd32099f2a250633822a6fbf6eb771b",
      "to": "0xb66f1a8243f601cee72bbf51c479f37b0de50e9f",
      "contractAddress": null
    }
  ],
  "libraries": [],
  "pending": [],
  "returns": {},
  "timestamp": 1769492282691,
  "chain": 11155111,
  "commit": "819ff4a"
}