{
  "transactions": [
    {
      "hash": "0x1748436da13308849cdfdbb75ad2dfe0d25b58568081bf03b84b45795557e3ac",
      "transactionType": "CREATE",
      "contractName": "VTONFaucet",
      "contractAddress": "0xde20e7ddecbaface027ed0e48df92379bd473717",
      "function": null,
      "arguments": [
        "0xDa2953E9B2a63fe1B8dB34C67f8371C64f16914d",
        "0x488f3660FCD32099F2A250633822a6fbF6Eb771B"
      ],
      "transaction": {
        "from": "0x488f3660fcd32099f2a250633822a6fbf6eb771b",
        "gas": "0x7667c",
        "value": "0x0",
        "input": "0x60a0604052683635c9adc5dea0000060015534801561001c575f80fd5b5060405161066b38038061066b83398101604081905261003b91610146565b806001600160a01b03811661006a57604051631e4fbdf760e01b81525f60048201526024015b60405180910390fd5b610073816100dc565b506001600160a01b0382166100ca5760405162461bcd60e51b815260206004820152601460248201527f496e76616c69642076544f4e20616464726573730000000000000000000000006044820152606401610061565b506001600160a01b0316608052610177565b5f80546001600160a01b038381166001600160a01b0319831681178455604051919092169283917f8be0079c531659141344cd1fd0a4f28419497f9722a3daafe3b4186f6b6457e09190a35050565b80516001600160a01b0381168114610141575f80fd5b919050565b5f8060408385031215610157575f80fd5b6101608361012b565b915061016e6020840161012b565b90509250929050565b6080516104d66101955f395f818160c4015261023d01526104d65ff3fe608060405234801561000f575f80fd5b50600436106100a6575f3560e01c8063715018a61161006e578063715018a614610134578063830953ab1461013c5780638da5cb5b14610153578063b1c7ef0c14610163578063d54ad2a114610176578063f2fde38b1461017f575f80fd5b806316c38b3c146100aa57806342e8d166146100bf5780634e71d92d146101035780635c975abb1461010b5780636dc7a62714610128575b5f80fd5b6100bd6100b8366004610418565b610192565b005b6100e67f000000000000000000000000000000000000000000000000000000000000000081565b6040516001600160a01b0390911681526020015b60405180910390f35b6100bd6101e1565b6003546101189060ff1681565b60405190151581526020016100fa565b60035460ff1615610118565b6100bd6102db565b61014560015481565b6040519081526020016100fa565b5f546001600160a01b03166100e6565b6100bd61017136600461043e565b6102ee565b61014560025481565b6100bd61018d366004610455565b61035b565b61019a61039d565b6003805460ff19168215159081179091556040519081527f7c4d1fe30fdbfda9e9c4c43e759ef32e4db5128d4cb58ff3ae9583b89b6242a59060200160405180910390a150565b60035460ff161561020557604051636dd7b58760e11b815260040160405180910390fd5b60015460025f828254610218919061047b565b90915550506001546040516340c10f1960e01b815233600482015260248101919091527f00000000000000000000000000000000000000000000000000000000000000006001600160a01b0316906340c10f19906044015f604051808303815f87803b158015610286575f80fd5b505af1158015610298573d5f803e3d5ffd5b5050600154604080519182524260208301523393507f987d620f307ff6b94d58743cb7a7509f24071586a77759b77c2d4e29f75a2f9a92500160405180910390a2565b6102e361039d565b6102ec5f6103c9565b565b6102f661039d565b805f036103165760405163843ce46b60e01b815260040160405180910390fd5b600180549082905560408051828152602081018490527fc22e16deec6f587d0a1aad7275c1621e6c24431fea14dd71e8f3243e9fbc5ca3910160405180910390a15050565b61036361039d565b6001600160a01b03811661039157604051631e4fbdf760e01b81525f60048201526024015b60405180910390fd5b61039a816103c9565b50565b5f546001600160a01b031633146102ec5760405163118cdaa760e01b8152336004820152602401610388565b5f80546001600160a01b038381166001600160a01b0319831681178455604051919092169283917f8be0079c531659141344cd1fd0a4f28419497f9722a3daafe3b4186f6b6457e09190a35050565b5f60208284031215610428575f80fd5b81358015158114610437575f80fd5b9392505050565b5f6020828403121561044e575f80fd5b5035919050565b5f60208284031215610465575f80fd5b81356001600160a01b0381168114610437575f80fd5b8082018082111561049a57634e487b7160e01b5f52601160045260245ffd5b9291505056fea26469706673582212201ffbea5df406174856beb6e70d23e3364b3b234156d83564f9b457e3fd38da6364736f6c63430008180033000000000000000000000000da2953e9b2a63fe1b8db34c67f8371c64f16914d000000000000000000000000488f3660fcd32099f2a250633822a6fbf6eb771b",
        "nonce": "0x10",
        "chainId": "0xaa36a7"
      },
      "additionalContracts": [],
      "isFixedGasLimit": false
    },
    {
      "hash": "0x9633f963b8e88240238aefb8f22cdae47d8bc99661756ede5a9bfb37f56dec26",
      "transactionType": "CALL",
      "contractName": null,
      "contractAddress": "0xda2953e9b2a63fe1b8db34c67f8371c64f16914d",
      "function": "setMinter(address,bool)",
      "arguments": [
        "0xDe20E7DDecbaFaCE027eD0E48DF92379bD473717",
        "true"
      ],
      "transaction": {
        "from": "0x488f3660fcd32099f2a250633822a6fbf6eb771b",
        "to": "0xda2953e9b2a63fe1b8db34c67f8371c64f16914d",
        "gas": "0x10281",
        "value": "0x0",
        "input": "0xcf456ae7000000000000000000000000de20e7ddecbaface027ed0e48df92379bd4737170000000000000000000000000000000000000000000000000000000000000001",
        "nonce": "0x11",
        "chainId": "0xaa36a7"
      },
      "additionalContracts": [],
      "isFixedGasLimit": false
    }
  ],
  "receipts": [
    {
      "status": "0x1",
      "cumulativeGasUsed": "0xa2cfb2",
      "logs": [
        {
          "address": "0xde20e7ddecbaface027ed0e48df92379bd473717",
          "topics": [
            "0x8be0079c531659141344cd1fd0a4f28419497f9722a3daafe3b4186f6b6457e0",
            "0x0000000000000000000000000000000000000000000000000000000000000000",
            "0x000000000000000000000000488f3660fcd32099f2a250633822a6fbf6eb771b"
          ],
          "data": "0x",
          "blockHash": "0x8ff44d5dcffdc175289c8ffa0978dacae6035371cd8b85b9ebef225ae2501ec1",
          "blockNumber": "0x9a9b47",
          "blockTimestamp": "0x6978474c",
          "transactionHash": "0x1748436da13308849cdfdbb75ad2dfe0d25b58568081bf03b84b45795557e3ac",
          "transactionIndex": "0x4a",
          "logIndex": "0x6e",
          "removed": false
        }
      ],
      "logsBloom": "0x00000000000000000000000004000000000000000000000000804000000000000000000000000000000000000000000000000000000000000000000000000000000000000000000000000000000000000001000000000000000000000000000000000000020000000000080000000800000000000000000000000000000000400000000000000000000000000000000000000000000040000000000000000000000000000000000000000000000000000000000000000000000000000000000000000000400000000000000000000000000000000000000000000000000020000000000000000008000000000000000000000000000000000000000000000000",
      "type": "0x2",
      "transactionHash": "0x1748436da13308849cdfdbb75ad2dfe0d25b58568081bf03b84b45795557e3ac",
      "transactionIndex": "0x4a",
      "blockHash": "0x8ff44d5dcffdc175289c8ffa0978dacae6035371cd8b85b9ebef225ae2501ec1",
      "blockNumber": "0x9a9b47",
      "gasUsed": "0x5b14c",
      "effectiveGasPrice": "0x3d0ae7fe",
      "from": "0x488f3660fcd32099f2a250633822a6fbf6eb771b",
      "to": null,
      "contractAddress": "0xde20e7ddecbaface027ed0e48df92379bd473717"
    },
    {
      "status": "0x1",
      "cumulativeGasUsed": "0xa38ada",
      "logs": [
        {
          "address": "0xda2953e9b2a63fe1b8db34c67f8371c64f16914d",
          "topics": [
            "0xb21afb9ce9be0a676f8f317ff0ca072fb89a4f8ce2d1b6fe80f8755c14f1cb19",
            "0x000000000000000000000000de20e7ddecbaface027ed0e48df92379bd473717"
          ],
          "data": "0x0000000000000000000000000000000000000000000000000000000000000001",
          "blockHash": "0x8ff44d5dcffdc175289c8ffa0978dacae6035371cd8b85b9ebef225ae2501ec1",
          "blockNumber": "0x9a9b47",
          "blockTimestamp": "0x6978474c",
          "transactionHash": "0x9633f963b8e88240238aefb8f22cdae47d8bc99661756ede5a9bfb37f56dec26",
          "transactionIndex": "0x4b",
          "logIndex": "0x6f",
          "removed": false
        }
      ],
      "logsBloom": "0x00000000000000000000000000000040000000000000000000000000000000000000000000000000000000000000000000004000000000040000000000000080000800000000000000000000000000000008000000000008000000000000000000000000000000000000000000000000000000000000000000000000000000000000000000000000000000000000000000000000000000000000200000000000000000000000000000000000000000000000000000000008000000000000000000000000000000000000000000000000000000000000000000000000000000000000000000000000000000000000000000000000000000000000000000000000",
      "type": "0x2",
      "transactionHash": "0x9633f963b8e88240238aefb8f22cdae47d8bc99661756ede5a9bfb37f56dec26",
      "transactionIndex": "0x4b",
      "blockHash": "0x8ff44d5dcffdc175289c8ffa0978dacae6035371cd8b85b9ebef225ae2501ec1",
      "blockNumber": "0x9a9b47",
      "gasUsed": "0xbb28",
      "effectiveGasPrice": "0x3d0ae7fe",
      "from": "0x488f3660fcd32099f2a250633822a6fbf6eb771b",
      "to": "0xda2953e9b2a63fe1b8db34c67f8371c64f16914d",
      "contractAddress": null
    }
  ],
  "libraries": [],
  "pending": [],
  "returns": {},
  "timestamp": 1769490251456,
  "chain": 11155111,
  "commit": "819ff4a"
}